:020000040800F2
:100000009006002089010008970C0008BD0B00082D
:10001000950C0008AF020008830F000800000000E4
:100020000000000000000000000000002B0F00088E
:10003000C103000800000000290F00082D0F000870
:10004000A3010008A3010008A3010008A301000800
:10005000A3010008A3010008A3010008A3010008F0
:10006000A3010008A3010008A3010008A3010008E0
:10007000A3010008A3010008A3010008A3010008D0
:10008000A3010008A3010008A3010008A3010008C0
:10009000A3010008A3010008A3010008A3010008B0
:1000A000A3010008A3010008A3010008A3010008A0
:1000B000A3010008A301000800000000A30100083C
:1000C000A30100080000000000000000A3010008D8
:1000D00000000000A3010008A301000800000000C8
:1000E000A3010008A3010008A301000800F002F822
:1000F00000F03AF80AA090E8000C82448344AAF188
:100100000107DA4501D100F02FF8AFF2090EBAE885
:100110000F0013F0010F18BFFB1A43F0010318473B
:10012000D8270000F8270000103A24BF78C878C10B
:10013000FAD8520724BF30C830C144BF04680C60ED
:10014000704700000023002400250026103A28BF35
:1001500078C1FBD8520728BF30C148BF0B60704739
:100160001FB51FBD10B510BD00F06CF81146FFF7AC
:10017000F7FF00F0A1FF00F08AF803B4FFF7F2FFE9
:1001800003BC00F08DF8000009488047094800478B
:10019000FEE7FEE7FEE7FEE7FEE7FEE7FEE7FEE737
:1001A000FEE7FEE704480549054A064B7047000094
:1001B000810F0008ED00000890000020900600204C
:1001C00090020020900200204FF0000200B513467C
:1001D00094469646203922BFA0E80C50A0E80C5067
:1001E000B1F12001BFF4F7AF090728BFA0E80C5018
:1001F00048BF0CC05DF804EB890028BF40F8042B11
:1002000008BF704748BF20F8022B11F0804F18BF7D
:1002100000F8012B704770477047704710B500F029
:1002200009F8006810BD10B5044600F003F804603A
:1002300010BD0000004870472C00002000487047A7
:100240002C0000207546FFF7F9FFAE460500694611
:10025000534620F00700854618B020B5FFF7A2FFEF
:10026000BDE820404FF000064FF000074FF00008B7
:100270004FF0000B21F00701AC46ACE8C009ACE838
:10028000C009ACE8C009ACE8C0098D46704710B59C
:100290000446AFF300802046BDE81040FFF76DBF75
:1002A00001491820ABBEFEE7260002007047FEE7BA
:1002B00070B5424D044600220221284600F079F92B
:1002C000207800F0E9FC052000F07CF801220221F2
:1002D000284600F06EF900220421284600F069F952
:1002E000607800F0D9FC052000F06CF801220421B0
:1002F000284600F05EF900220821284600F059F94E
:10030000A07800F0C9FC052000F05CF8012208216B
:10031000284600F04EF900221021284600F049F945
:10032000E07800F0B9FC052000F04CF80122102123
:10033000284600F03EF900222021284600F039F935
:10034000207900F0A9FC052000F03CF801222021D2
:10035000284600F02EF900224021284600F029F915
:10036000607900F099FC052000F02CF80122402172
:10037000284600F01EF900228021284600F019F9D5
:10038000A07900F089FC052000F01CF801228021F2
:10039000284600F00EF9AE1500223146284600F03E
:1003A00008F9E07900F078FC052000F00BF8314600
:1003B0002846BDE87040012200F0FBB8000C014067
:1003C0007047000070B5044600F0F8F80546601C60
:1003D00002D004480078044400F0F0F8401BA0422A
:1003E000FAD370BD1C0000202DE9F84FDFF89C9176
:1003F000002409F1040A0AF1040B23460F270BF12C
:10040000040EBBE00125A5402A40AA4276D1DFF8C0
:1004100080C14E68A6EB0C0866452BD00DDC032E80
:1004200034D005DC36B3012E19D0022E2FD11BE0BB
:10043000112E16D0122E2AD119E0B8F5881F19D026
:1004400006DCB8F5803F15D0B8F5801F1FD111E04C
:10045000B8F5001F0ED0B8F5041F18D10AE0CB681C
:1004600015E0CB681B1D12E0CB6808330FE0CB68AA
:100470000C330CE08B682BB1012B4FF0080303D039
:10048000456104E0042302E0056100E00023FF2A47
:1004900001D8064601E000F104064FEA840501D9BF
:1004A000A5F12005D6F8008007FA05FC28EA0C081B
:1004B00003FA05F548EA0508C6F800804D68ED0026
:1004C0005BD5344DAE6946F00106AE61AD6924F0EE
:1004D000030605F0010500952F4D06EB050CDCF831
:1004E0000850A607360F07FA06F825EA0805DFF8D0
:1004F000AC80404503D14FF0000810E03DE0DFF84C
:10050000A080404502D14FF0010808E0DFF8948058
:10051000404502D14FF0020801E04FF0030808FA0D
:1005200006F848EA0508CCF808804D68D9F800605C
:10053000ED034D4601D5164300E096432E604D680D
:10054000DAF80060AD03554601D5164300E0964346
:100550002E604D68DBF80060ED025D4601D5164364
:1005600000E096432E604D68DEF80060AD027546EF
:1005700001D5164300E096432E60641C0A6832FAE7
:1005800004F57FF43FAFBDE8F88F000000040140A0
:10059000000011100010024000000140000801405E
:1005A000000C0140001001408068084000D001208C
:1005B00070470AB1016170470904FBE70148806890
:1005C000704700001C000020024881680278114436
:1005D000816070471C000020074810B5016841F099
:1005E00010010160032000F067F8002000F006F819
:1005F00000F024F8002010BD0020024070B50D4D21
:1006000004464FF47A712878B1FBF0F00A49096882
:10061000B1FBF0F000F0BEFA48B9102C07D200226E
:100620002146501E00F028F800206C6070BD0120AB
:1006300070BD00001C000020280000200C4808B5F8
:10064000816941F001018161816901F0010100913D
:10065000C16941F08051C161C06900F080500090D3
:100660000448416821F0E06141F00071416008BD3B
:100670000010024000000140F0B40E4B1B680C4615
:10068000C3F30223C3F10705042D00D90425191D66
:10069000072901D2002300E0DB1E012606FA05F13E
:1006A000491E214099409E40761E16403143F0BCC1
:1006B00000F07CBC0CED00E0064900F00702086881
:1006C0004FF6FF03184040EA0220034A1043086037
:1006D000704700000CED00E00000FA052DE9F0473E
:1006E0000F46050061D0434E306800F00700B84265
:1006F00009D2306820F0070038433060306800F0DD
:100700000700B84251D128683B4C810712D54007F9
:1007100003D5606840F4E06060602878000703D586
:10072000606840F4605060606068A96820F0F00084
:10073000084360602878C00728D06868012810D076
:100740002168022810D0890700292EDA616821F07B
:10075000030101436160FFF731FF804641F28839B0
:100760000DE021688903EFE78901EDE7FFF726FF38
:10077000A0EB0801494502D90320BDE8F087606875
:10078000696800F00C00B0EB810FEFD1306800F029
:100790000700B8420BD9306820F0070038433060BA
:1007A000306800F00700B84201D00120E5E7287862
:1007B000400705D56068E96820F4E06008436060A0
:1007C0002878000706D56068296920F4605040EA5F
:1007D000C100606000F018F86168084AC1F30311B5
:1007E000515CC8400649086006480068FFF706FFEC
:1007F0000020C2E7002002400010024054280008F8
:10080000280000202000002012A185B00FC98DE82B
:100810000F0014A0144A006804905168134801F0B6
:100820000C03042B10D0082B0ED1C1F38343C90352
:100830001DF803000AD5516804AAC1F34041515C78
:100840000A4A5043B0FBF1F005B0704708494843ED
:10085000FAE7000002030405060708090A0B0C0D5D
:100860000E0F1010010200000010024000127A006A
:1008700000093D002DE9F84F040070D02078C04DEC
:10088000C00749D06868C0F38100012807D06868B4
:10089000C0F38100022809D16868C00306D5286822
:1008A000800339D560680028E7D035E06068B0F58E
:1008B000803F0BD010B1B0F5A02F11D0286820F4E4
:1008C00080302860286820F4802002E0286840F406
:1008D00080302860606890B1FFF770FE06460AE03D
:1008E000286840F480202860F0E700BFFFF766FE2C
:1008F000801B642873D828688003F7D50CE0FFF7C5
:100900005DFE064605E000BFFFF758FE801B642829
:10091000F0D828688003F7D420789A4E80074FF0EB
:1009200001094FF0000839D5686810F00C0F07D0A6
:100930006868C0F38100022809D16868C00306D442
:100940002868800714D52069012808D110E02069A3
:10095000B0B1C6F80090FFF731FE074605E00AE1A6
:10096000FFF72CFEC01B0228C4D828688007F7D5E3
:100970002868616920F0F80040EAC10028600DE0B5
:10098000C6F80080FFF71AFE074604E0FFF716FEE0
:10099000C01B022823D828688007F7D420780007D6
:1009A0002CD57948A169D9B1C0F80090FFF706FEAF
:1009B000074604E0FFF702FEC01B02280FD8686A52
:1009C0008007F7D571484FF4FA510068B0FBF1F099
:1009D000009000BF0098411E0091FAD20EE080E026
:1009E000C0F80080FFF7EAFD074604E0FFF7E6FDE8
:1009F000C01B022875D8686A8007F7D420784007A2
:100A000060D5E8690027C00008D4E86940F080504C
:100A1000E861E869012700F0805000905C480168B7
:100A2000C90513D40168834641F480710160FFF762
:100A3000C5FD824606E000BFFFF7C0FDA0EB0A003F
:100A400064284ED8DBF80000C005F5D5E068012821
:100A50000AD008B1052813D0286A20F001002862C6
:100A6000286A20F0040002E0286A40F001002862B1
:100A7000E06841F2883B98B1FFF7A0FD82460BE0A9
:100A8000286A40F004002862EEE700BFFFF796FDF9
:100A9000A0EB0A0159455AD8286A8007F6D50CE020
:100AA000FFF78CFD824605E0FFF788FDA0EB0A0109
:100AB00059454CD8286A8007F6D41FB1E86920F060
:100AC0008050E861E06988B36968C1F38101022957
:100AD00044D00228C6F8608004D0FFF76FFD0446BA
:100AE00038E034E0FFF76AFD074604E0FFF766FDF3
:100AF000C01B02282BD828688001F7D4206AB0F5E3
:100B0000803F05D16868A16820F400300843686020
:100B1000D4E908010843696821F474110843686046
:100B2000C6F86090FFF74AFD044606E025E000BFE6
:100B3000FFF744FD001B022809D828688001F7D57B
:100B40001BE000BFFFF73AFD001B022802D903207B
:100B5000BDE8F88F28688001F4D40EE00128F7D0B2
:100B60006868226A00F48031914204D1616A00F41D
:100B70007010884201D00120EAE70020E8E7000079
:100B8000001002400000424280044242280000203F
:100B90000070004010B5401EB0F1807F01D30120ED
:100BA00010BD4FF0E02460610F21601700F0FEF9E6
:100BB0000020A06107202061002010BDFEE700009A
:100BC0002DE9F04F85B000242E4800940194029442
:100BD0000394816941F010018161816901F0100184
:100BE0000491816941F004018161816901F004018E
:100BF0000491816941F0080181618069DFF8889082
:100C000000F008004FF400550490002229464846A1
:100C1000FFF7CFFCDFF874A04FF477670022394666
:100C20005046FFF7C6FCDFF868B04FF4FF780022AB
:100C300041465846FFF7BDFC009502260125039664
:100C4000CDE9015469464846FFF7CEFB0F208DE8F9
:100C5000310069465046FFF7C7FB00970396CDE980
:100C6000015469465046FFF7BFFBCDF8008003965C
:100C7000CDE9015469465846FFF7B6FB05B0BDE81B
:100C8000F08F0000001002400010014000080140F9
:100C9000000C0140FEE7FEE72DE9F047214D044638
:100CA00000F001024FF4006631462846FFF781FC50
:100CB0004FF48069C4F3400249462846FFF779FCA7
:100CC0006F15C4F3800239462846FFF772FC4FF4D3
:100CD0008078C4F3C00241462846FFF76AFC0B2C1B
:100CE00017D00A2C1CD1012231462846FFF761FC9F
:100CF000012249462846FFF75CFC01223946284676
:100D0000FFF757FC41462846BDE8F0470122FFF7B0
:100D100050BC002231462846FFF74BFC0022E8E792
:100D2000BDE8F087000801402DE9F0417D4E1746EF
:100D30000C460546012210213046FFF73AFC0122FD
:100D400020213046FFF735FC012240213046FFF7D5
:100D500030FC002210213046FFF72BFC01213046E9
:100D6000FFF722FC58B901213046FFF71DFC00288F
:100D7000F9D02178012068542078401C207002218D
:100D80003046FFF711FC58B902213046FFF70CFC42
:100D90000028F9D02178042068542078401C207065
:100DA00004213046FFF700FC58B904213046FFF714
:100DB000FBFB0028F9D02178072068542078401CDC
:100DC000207008213046FFF7EFFB60B9082130465C
:100DD000FFF7EAFB0028F9D02CB120780A21401E49
:100DE000C0B220702954012210213046FFF7E1FBE8
:100DF000002220213046FFF7DCFB01213046FFF7BF
:100E0000D3FB58B901213046FFF7CEFB0028F9D0BB
:100E10002178022068542078401C2070022130463E
:100E2000FFF7C2FB58B902213046FFF7BDFB00288F
:100E3000F9D02178052068542078401C20700421C6
:100E40003046FFF7B1FB58B904213046FFF7ACFB41
:100E50000028F9D02178082068542078401C2070A0
:100E600008213046FFF7A0FB58B908213046FFF7AC
:100E70009BFB0028F9D02178002068542078401C82
:100E80002070012220213046FFF793FB00224021F1
:100E90003046FFF78EFB01213046FFF785FB58B93E
:100EA00001213046FFF780FB0028F9D0217803208C
:100EB00068542078401C207002213046FFF774FBF4
:100EC00058B902213046FFF76FFB0028F9D021788E
:100ED000062068542078401C207004213046FFF71B
:100EE00063FB58B904213046FFF75EFB0028F9D0B8
:100EF0002178092068542078401C20700821304651
:100F0000FFF752FB38B908213046FFF74DFB0028A8
:100F1000F9D0012038703046BDE8F041012240216F
:100F2000FFF747BB0008014070477047FFF74CBB15
:100F300010B590B028216846FFF746F914210AA899
:100F4000FFF742F9022000900120049010200024B5
:100F5000059007946846FFF78DFC08B172B6FEE76E
:100F60000F20CDE90A040C940D9400210AA80E94D8
:100F7000FFF7B4FB002801D072B6FEE710B010BD39
:100F80007047FEE7490050EAC12018BF04204A0D0F
:100F900018BF40F0010040F2FF72B2EB515F08BF92
:100FA00040F00200012808BF052070470907090E1C
:100FB000002804DB00F1E02080F80014704700F006
:100FC0000F0000F1E02080F8141D70472DE9F0417A
:100FD0004F1E00EBC7010446D1E9000115461E462D
:100FE00037F006020DD02A46334601F0ABF87F1EDB
:100FF00004EBC703D3E9002300F0FCFD37F0060241
:10100000F1D1022F25D0042F13D0062F18BFBDE831
:10101000F0812A46334601F095F8D4E90A2300F01E
:10102000E9FD2A46334601F08DF8D4E9082300F0A3
:10103000E1FD2A46334601F085F8D4E9062300F0A5
:10104000D9FD2A46334601F07DF8D4E9042300F0A7
:10105000D1FD2A46334601F075F8D4E9022300F0A9
:10106000C9FD2A46334601F06DF8D4E90023BDE8F6
:10107000F04100F0BFBD00000022134610460149B8
:1010800000F074BE0000F03F00F0B4BD0022134633
:101090001046114600F06ABE40F2013200204FF0C7
:1010A000E04101F091BB0000024A0020110701F06D
:1010B0008BBB000001FDFFFFFFF78EFAFFF738FF43
:1010C000FFF77EFD4FF4005B012259463D48FFF7D4
:1010D00070FADFF8F4804FF00009A8F10C053A4AE5
:1010E00039480A3A911EFFF71FFE2878082801D9CF
:1010F000401E28706878032846D03348FFF7D8F898
:10110000A8780028EBD0DFF8C4A00024C4F10700C1
:1011100000F0B1FF0B4602460020514600F058F89F
:1011200006460F4618F8040000F0BCFF32463B4666
:1011300001F008F806460F46A86800F0B3FF3246F3
:101140003B4600F057FD00F069FF641CA860082CC6
:10115000DCDB696888421CD1DFF868A05F460126A5
:101160004FEA0804D5E90101814228D1002239461D
:101170005046FFF71EFA00202654401C0828FBDBCF
:101180001148FFF795F8EDE70F480830FFF790F8A2
:10119000B0E76878401C68700B480830FFF788F8A3
:1011A0004FF4FA70FFF70EF985F8009000204146E1
:1011B0000A22C5F808900A54401C0828FBDB85F871
:1011C00002908CE7001001400C0000200000244039
:1011D0002DE9F04D1D460C4698B0174621F0004110
:1011E00023F00043002814BF4FF0010C4FF0000C17
:1011F0000CEB440CFE4A0CEB02064FEA620C66450F
:101200002BD33E0018BF012606EB45061644F94ACB
:10121000964222D3F84A53EA070C02D0944205D1F1
:1012200048B918B000201146BDE8F08D002808BF6D
:101230004FF0000C01D04FF0010C0CEB440212F502
:10124000001F0AD8002F14BF4FF0010C4FF0000C04
:101250000CEB450212F5001F07D918B03A462B4691
:101260002146BDE8F04DFFF70FBF0022DFF88CA349
:10127000002CB8BF534526DADFF884C36345A8BF06
:10128000022220DADFF870C39C451CDCDFF874C34F
:101290000CEB235CBCF1140F08DDCCF1340627FA0B
:1012A00006FC0CFA06F6BE420DD108E05FB9CCF19F
:1012B000140623FA06FC0CFA06F69E4203D10CF043
:1012C0000102C2F1020251EA000C19D1002D17DA15
:1012D000002C18BF022A01D0012A07D00220FEF7F5
:1012E000A2FF18B0BDE8F04DFFF7C6BE0220FEF722
:1012F0009AFFFFF7C1FE18B081F00041BDE8F08D04
:10130000B7F1000C6CD1534525D104F1804212F5A0
:10131000801201BF00280020B74918B008BFBDE8FF
:10132000F08DB548884207DC002DA1BF60462946F4
:1013300018B0BDE8F08D07E0281E05DA80F0004106
:1013400018B06046BDE8F08DAF497944D1E900019D
:1013500018B0BDE8F08DDFF8A0C2634525D1002D9F
:101360001FDA19B1514512D1D8B909E0002840F06F
:10137000EC82A24A214618B062F31E01BDE8F08D4E
:101380000020214618B060F31E01BDE8F08D08DA98
:1013900018B02346BDE8F04D02460020614600F03B
:1013A000E5BC18B02146BDE8F08D514518DAB5F11D
:1013B000804F0DD0A5F1005CBCF1FF5C10D1B4F101
:1013C000000C0DDB18B06146BDE8F04D00F0ECBB41
:1013D000234618B00246BDE8F04D194600F0B2BEF3
:1013E000060024F0004C3BD1D9B1514533D1002C3B
:1013F00006DD002DA1BF0020514618B0BDE8F08DDC
:10140000002C01DD002D1BDB002C13DA002D11DB7D
:10141000012A4FF0000014BF78497C4918B0BDE89C
:10142000F08D022A18BF002C0AD0012A08D1002C06
:1014300006DA0AE0002CB8BF002D11DA012A04D028
:10144000002018B00146BDE8F08D18B000204FF024
:101450000041BDE8F08DA1F14050B0F17F601AD09D
:10146000012000EBE47050EA020421D0624C521ECD
:101470004FF0000B104304BF4FF0000B644C654865
:1014800083427CDD644A654893421FDD884217DB56
:10149000002D25DB37E0002C00DA4AB1022A0CBF10
:1014A00001204FF0FF3018B0BDE8F04D00F0E3BD73
:1014B0000120FEF7B8FE18B0BDE8F04DFFF7E6BD1D
:1014C0004D4A8A4202DC002D0ADC1CE0814202DA2D
:1014D000002D18DA04E0484B994220DD002D12DD82
:1014E0000220FEF7A0FEFFF7D7FD05460E460022BC
:1014F00053465846214600F025FE18B066F31E01FB
:101500002846BDE8F08D0220FEF78DFEFFF7CCFDEA
:101510000A46214618B062F31E01BDE8F08D002294
:101520003046614601F034F880460E466FF0010205
:1015300001F04AF94FF05532394B00F037FF42467F
:10154000334600F0FFFD0022364B00F02FFF8246AD
:101550004246334604911046194600F0F3FD5246C8
:10156000049B00F0EFFD8A4600904FF0C0422E4BE6
:101570004046314600F0E6FD2C4A2B4B00E027E0C8
:10158000CDE906015146009800F0DCFD824601914C
:10159000274A284B4046314600F0D4FD5246019B75
:1015A00000F0F6FF82460B4602460591DDE9060192
:1015B00000F020FBDDE9062300268846304600F0D7
:1015C000E7FF5246059B00F0F1FE024600F07EB9AF
:1015D0000020B1F5801F07DA35223046614601F060
:1015E000F3F806466FF0340000EB215024E00000D1
:1015F000FFFF1F00FFFF0F000000F03F0000F07F23
:101600000000404301FCFFFFA21500000000F0FFB6
:101610000000F0BF0000E0410000F043FFFFEF3F9B
:101620005555D53F0000E03F4715F73FFE822B653B
:1016300044DF5DF80BAE543EA0F2FF300190C1F3E1
:10164000130040F07F6141F040510291FE49884211
:10165000D8BF002004DDFD498142C8BF012001DD63
:101660000D9008E000200D900198401C0190029818
:10167000A0F5801002900299F54878440B910D99DD
:1016800000EBC100D0E900230F9330460A920B997A
:1016900000F07EFFCDE90601DDE90A2130460F9B0F
:1016A00000F0A8FA02460B460020EA4900F05EFB73
:1016B000059102460B460090DDE9060100F042FD6F
:1016C0001490E5488A464FF0000878440299006873
:1016D00012904FF0005040EA61010D980F9B01EB12
:1016E000804000F5002109910A9A129800F050FFFD
:1016F00032460B9B00F05AFE4246534600F022FD54
:101700000646029140465146099B129A00F01AFD86
:10171000DDE9062300F04AFE3246029B00F038FF66
:10172000059B009A00F00EFD0091149A0490534618
:101730001046194600F006FD06460246C7480B460D
:10174000029106217844FFF741FCCDE90510029B88
:1017500032461046194600F0F5FCDDE9053200F08E
:10176000F1FC05910646534640461946149A00F08E
:1017700041FA009B049A00F0E5FC3246059B00F01C
:1017800039FACDE90510424653461046194600F095
:10179000D9FC0022B24B02910A9000F02BFADDE94D
:1017A000053200F027FA0E464246AD4B404600F0A7
:1017B000EFFE029B0A9A00F0EBFEDDE9053200F035
:1017C000F5FD424602910A9033461046514600F01C
:1017D000B9FCCDE906015346149A02990A9800F023
:1017E000B1FC8A460290334642460099049800F0C4
:1017F000A9FC5346029A00F0FDF982460B460246C8
:101800000591DDE9060100F0F5F9DDE90623002088
:101810008846064600F0BCFE5246059B00F0C6FD19
:10182000824609914FF060428E4B3046414600F0AF
:1018300089FC049006918C4A8A4B5046099900F025
:1018400081FC82460291894A894B3046414600F02C
:1018500079FC5246029B00F0CDF9864B7B440D9AF1
:1018600003EBC203D3E9002300F0C4F90E90079103
:10187000019800F000FC0591DDE9061382460E9AFE
:10188000049800F0B7F97C4A7A440D9B02EBC3033D
:10189000D3E900230093029200F0ACF95246059B75
:1018A00000F0A8F90026884652463046059B00F015
:1018B0006FFE009B029A00F06BFE069B049A00F0FC
:1018C00067FE079B0E9A00F071FD024600200B4652
:1018D00002903846294600F035FC824601912B469D
:1018E00038461946029A00F053FE3246434600F04D
:1018F00029FC5246019B00F07DF907468A46324694
:1019000043462946029800F01DFC05460E463A461D
:10191000534600F06FF9594A8846914221DBA8EB03
:10192000020353EA000210D12A46334600F030FE8B
:10193000CDE90401524A534B3846514600F05AF95A
:10194000DDE9042300F0FCFC21D20220FEF76BFC51
:10195000FFF7A2FB0A46214618B062F31E01BDE85C
:10196000F08D494B28F000429A4210D3474A08EBC9
:10197000020353EA00027FF4C6AD2A46334600F064
:1019800007FE3A46534600F0DBFC7FF6BCAD002272
:10199000019228F000403E493E4A01EB205182422C
:1019A00023DA481C4FF4801121FA00F040443A4AEF
:1019B000C0F30A517A44394BA1F2FF31CB4020EAFF
:1019C0000303C0F3130040F48010C1F11401C840B8
:1019D00012680190B8F1000FBCBF40420190284648
:1019E000314600F0D5FD05460E462A4633463846B8
:1019F000514600F0FFF84FF000084246284B4046A1
:101A0000059100F09FFBCDE90601264A264B404692
:101A1000059900F097FB009102902A463346404614
:101A2000059900F0B5FD3A46534600F0BFFC1F4A49
:101A30001F4B00F087FB009B029A00F0DBF8074683
:101A4000884602460B4635E08E9803007AB60B00B6
:101A5000EA1100000000F03F2212000050110000C7
:101A60000000084009C7EE3FFD033ADCF5015B14B6
:101A7000E02F3EBE28100000EC0F00000000904058
:101A8000FE822B654715973C00CC904000346F3F99
:101A900001FCFFFF0000E03F380F0000FFFF0F00D8
:101AA000432EE63F396CA80C615C20BEEF39FAFE8C
:101AB000422EE63FDDE9060100F09CF8DDE9062351
:101AC00005460E4600F064FD3A46434600F06EFCC3
:101AD0000F462A46334600901046194600F032FB66
:101AE000824602462E4888460B4605217844FFF779
:101AF0006DFA5246434600F025FB2A46334600F075
:101B000055FC80468A463B4628463146009A00F0FE
:101B100019FB3B46009A00F06DF8069100900022F8
:101B20004FF080434046514600F032FD0F460C9086
:101B3000424653462846314600F004FB3B460C9A89
:101B400000F014F9069B009A00F022FD2A46334665
:101B500000F01EFD0022134B00F028FC0546019802
:101B60000E4601EB00510815002810DC28463146CE
:101B7000019A00F029FEFFF705FA042808BFFFF7D5
:101B800093FA28463146019A00F01EFE05460B46A0
:101B900018B02A4658462146BDE8F04D00F0D2BAAA
:101BA000D80D00000000F03F2DE9F04106460F4639
:101BB00000F008FC041E0D4618BF0120284320F049
:101BC0000040C0F17F6000F1E040C00F0ED0301C3B
:101BD00018BF0120384320F00040C0F17F6000F1C1
:101BE000E040C00F04BF0120FEF71DFB2046294640
:101BF000BDE8F08110B591EA030F48BF83F00043C0
:101C000000F1CE84841A71EB030C05D2121943EB58
:101C10000C03001B61EB0C01DFF824E14FEA1154C7
:101C2000A4EB135C1EEA430F18BF9EEA445F73D017
:101C300023EA0E03DCF1200E21EA045143F4801361
:101C400032D322FA0CFE10EB0E0023FA0CFE41EB0D
:101C50000E01CCF1200E03FA0EFE10EB0E0051F136
:101C60000001B1F5801FCCF1200E32D201EB0451FE
:101C700012FA0EF2BDE8104058BF7047401C38BF42
:101C80005FEA420218BF7047002814BF20F001002D
:101C900041F100014FEA410313F5001F38BF7047BF
:101CA000A1F1C04100F046BB012A43EB0302ACF1B5
:101CB000200CDCF11F0E32BF4FF0000E23FA0CF3A4
:101CC00010EB030041EB0451B4EB115FD0D0A1EB5A
:101CD000045101F5801149085FEA300001EB04511D
:101CE0000ED350F1000038BF12FA0EFE08D1BDE845
:101CF0001040C9E7401C38BF5FEA4202CAD1C3E7BF
:101D0000BDE810404FEA410313F5001F38BF70478C
:101D1000A1F1C04100F00EBB9EEA445F08D011EA79
:101D20005E0FBDE8104004BF01F000410020704785
:101D3000BDE8104070B500F0AFFA00BF64FBBE3ED6
:101D40000000E0FF02494FF0000000F00BBD00BFB3
:101D50000000F87F491058BFC1F140415B1058BFE7
:101D6000C3F140438B42EFF3008070472DE9C0413F
:101D700030B4DFF8A0C23CEA111418BF3CEA1314D7
:101D800000F0EC8081EA03051CEA111444EAD574E2
:101D900018BF1CEA131500F0C780A4EB05044FF030
:101DA000004545EAC12145EAC32341EA505143EACF
:101DB000525304F17F74994204F500344FEAC02075
:101DC0004FEAC22208BF904200F09C804FEA1365A0
:101DD0000FF24016765D4FEA134506FB05F7C7F193
:101DE000807706FB07F74FEAD737A7FB03687642F1
:101DF000C8F58038A7FB06CE38BFA8F1010807FB5D
:101E000008E64FF0000EA6FB028CE6FB03CEDCF1E9
:101E1000000CCEF1004E38BFAEF1010EA6FB0C58FF
:101E20004FF000074FF00005E6FB0E87A1FB08C648
:101E3000A0FB07CE16EB0E0645F10005E1FB07659A
:101E400015F1E04E7EBFA4F580345FEA46066D4191
:101E500016F1800745F100054FEA17274FEA06669D
:101E600047EA0567A6F1DE46B6F1805F4FEA152521
:101E70001FD9384624F0010C05EBC471BCF1FE6F8C
:101E800001EB0C1102D8F0BCBDE8008124425CBF1C
:101E900001F5801E9EEAC47F02D4F0BCBDE800813B
:101EA000244238D4F0BCA1F1C041BDE8004100F0AB
:101EB00041BA4FEAD22242EA43524FEAD323A7FB68
:101EC00002864FEAD02040EA415007FB03661EEA33
:101ED0000E0F4FEAD12105FB026658BFA6EB005654
:101EE000B6EB00564FEA520E4EEAC37E18EB0E0ECA
:101EF00056EB530EBDD518EB02085E417F1C55F121
:101F00000005B6E74FF480154FF000074FF00006CC
:101F10004FF00008ADE7F0BC4FF0000001F1C04108
:101F200001F00041BDE8008111EA0C1F0CEA131515
:101F300000D00CE013EA0C1F00F025804FF00000E9
:101F4000F0BC81EA030101F00041BDE80081F0BC72
:101F5000BDE8004181EA030100F0ECB9F0BCBDE846
:101F6000004170B500F098F9097EFC3E00F007B81A
:101F700081EA03014FF0000001F00041704781EA5F
:101F8000030100F0D7B9F0BCBDE800414FF00000FC
:101F900021497047FFFDFBF9F7F5F4F2F0EEEDEBA8
:101FA000E9E8E6E4E3E1E0DEDDDBDAD8D7D5D4D357
:101FB000D1D0CFCDCCCBCAC8C7C6C5C4C2C1C0BFA3
:101FC000BEBDBCBBBAB9B8B7B6B5B4B3B2B1B0AFA9
:101FD000AEADACABAAA9A8A8A7A6A5A4A3A3A2A18D
:101FE000A09F9F9E9D9C9C9B9A9999989797969548
:101FF00095949393929191908F8F8E8E8D8C8C8BE4
:102000008B8A89898888878786858584848383826B
:10201000828181800000FF070000F87F4FEA1153A2
:10202000A3F58063D3F11E03A8BFD3F1200C08DB16
:102030004FF0004242EAC12252EA505232FA03F013
:10204000704709420BD4102BC4BF0020704703F522
:10205000787CBCF1FF3F05D04FF0FF3070474FF068
:102060000000704770B500F017F900BF4992248056
:1020700000207047F0E710F0004248BF4042B0FA3D
:1020800080F310FA03F10AD0C3F11D0303F5806356
:102090004FEA415002EB035202EBD12170474FF05F
:1020A00000007047B0FA80F310FA03F10AD0C3F1D0
:1020B0001D0303F580634FEA41504FEA035202EBE0
:1020C000D12170474FF000007047000051EA030C27
:1020D00017D41CF5801F58BFBCF5801F00F1068087
:1020E000994218BF704708BF9042704707D711F553
:1020F000801F58BF13F5801F19D499427047894239
:1021000070471CF5801F08D5BCF5801FF7D58B42A2
:1021100018BF704708BF824270474FF4001C1CEB89
:10212000410F38BF1CEB430F01D28B42704770B593
:1021300000F0B2F8922449004FF000514FF0805364
:10214000FFF708BEDFF848C170B51CEA111E1EBFBC
:102150001CEA13159EEA0C0F95EA0C0F00F06F8035
:1021600081EA030423EA4C134EEAD47E21EA4C119F
:1021700041F4801143F48013AE44A1FB024CA0FB58
:102180000365AEF17F7E361955EB0C05A1FB034CC0
:102190004CF10003A0FB021C16EB0C06654153F149
:1021A0000003094218BF46F0010613F4007F0BD16B
:1021B0004FEA03314FEA0530340341EA155140EA52
:1021C00016506FF003020AE04FEAC3214FEAC52020
:1021D000F40241EA555140EA56506FF0020202EB18
:1021E0002E4201EB025585EACE710AD05FEA440C1B
:1021F00018BF24F0004450F1000041F1000120EA32
:10220000D47040F2FE7C624500D270BDA84214BF7B
:102210004FF080444FF04044002E08BF0024BEF130
:10222000806FA8BFA1F1C041BDE8704080F28280FC
:102230004FF0000001F1C04101F0004170479EEAFB
:102240000C0F0CEA131518BF95EA0C0F06D04FF0CF
:10225000000081EA030E0EF0004170BD00F01CF892
:102260008900013E00F007B800F009B84FEA430CBE
:102270005FEA5C5C08D081EA030100F05BB84FEADA
:10228000410C5FEA5C5CF6D14FF0000001497047F9
:102290000000FF070000F87F0EF1020E2EF0030E83
:1022A0005EF8046B364205D4012A43EB030515F5AD
:1022B000001F12D8012841EB010C1CF5001F0CD89F
:1022C0000ED14FEAD17C15F5001F0CEB4C0C0CF134
:1022D000020C08BF4CEBD37C04E04FF0080C01E08B
:1022E0004FEAD37C0CEB4C0526FA05F606F0070600
:1022F000B6F1040C06D20EEB860CBDE870404CF033
:10230000010C6047DFE80CF0090B02024FF00041BE
:102310004FF00000A1F5002170BD194610460128BC
:1023200051EB010418BFD4F5001484BF002001F064
:10233000004170BD0808A0F500114FEA3101704757
:1023400053EA010C17D41CF5801F58BFBCF5801F41
:1023500000F106808B4218BF704708BF8242704769
:1023600007D713F5801F58BF11F5801F19D48B4272
:1023700070479B4270471CF5801F08D5BCF5801F35
:10238000F7D5994218BF704708BF904270474FF485
:10239000001C1CEB430F38BF1CEB410F01D29942CC
:1023A00070470FB40CBC03BCFFF7C1BE91EA030F2A
:1023B00010B581F000413FF525AC83F0004300F0FB
:1023C000EFB800002DE9F04101F5801CBCF5001FBD
:1023D000C0F2C3804FEA115C21EA0C510CF1FD0CF4
:1023E00041F480115FEA5C0C0CF5C07C01D3400025
:1023F00049413DA4890241EA905187028E0E0A0CA0
:10240000A45D04FB04F602FB06F6C6F14046A4FBFD
:102410000662F60D46EA422606FB06F4A4FB0123FB
:102420005242C3F1404338BF5B1EA6FB0242002468
:10243000E6FB0324D20B42EA4446A6FB0623A1FB9B
:1024400002E2A3FB07E4A4184FF0000252F10002DD
:10245000E3FB01426442C2F1404E38BFAEF1010ECF
:10246000A6FB04234FF00002E6FB0E32A2FB03465C
:102470004FF00004B61954F10004E2FB0264A1FB22
:1024800006E6A4FB07E816EB08064FF0000858F133
:102490000008E4FB01687642C8F1405838BFA8F153
:1024A0000108A2FB06E4A3FB08E52D194FF0000488
:1024B00054F10004E2FB0854A1FB05E6A7FB04E885
:1024C00018EB06084FF0000656F10006E1FB048603
:1024D00018F1200556F10006A809A8F11B08B1095A
:1024E00008F03F08B8F10A0F40EA86601CD901EBFA
:1024F0000C51BDE8F08100BFFCF5EEE8E2DDD8D379
:10250000CFCBC7C3C0BDB9B6B4B1AEACA9A7A5A364
:10251000A19F9D9B9A9896959392908F8D8C8B8975
:102520008887868584838281A0FB006800FB01F296
:1025300008EB4208B8EB872807D5341858EB01049C
:10254000D5D5401C51F10001D1E7341A78EB0104D4
:10255000CDD4401E71F10001C9E75FEA4C0C5FEA7F
:102560009C5C0DD105D34FF0000001F00041BDE8A7
:10257000F081BDE8F04170B5FFF78EFE6DDBFFBE68
:10258000BDE8F0414FF00000004970470000F87FBF
:1025900010B591EA030F48BF83F000433FF532AB1B
:1025A000841A71EB030C07D212198CF0004C43EB28
:1025B0000C03001B61EB0C01DFF8A4E14FEA11549E
:1025C000A4EB135C1EEA430F18BF9EEA445F00F0C1
:1025D000B08023EA6E03524221EA0451C3EB6E033A
:1025E00038BF5B1EDCF1200E25D322FA0CFE10EB67
:1025F0000E0043FA0CFE41EB0E01CCF1200E03FA63
:102600000EFE10EB0E0051F10001CCF1200E29D48A
:1026100012FA0EF201EB0451BDE8104058BF7047AA
:10262000401C1CBFB2F1004F704700280CBF491C72
:1026300020F00100704712EB020E43EB030218BFBB
:102640004FF0010E4EEA4202ACF1200CDCF11E0EFE
:1026500054D943FA0CFE10EB0E0051F1FF31CCF1CE
:102660001E0ED5D50EF1010E12FA0EFE404141EBC1
:10267000010101EB445C5FEA5C5C10D910EBDE7099
:1026800001EB045138BFBEF1004FBDE8104018BF48
:10269000704700280CBF491C20F00100704730D261
:1026A0004FEAD42C11F5001124F400641BD0B1FAC8
:1026B00081F20B3AA41AA41ED2F12003914030FA01
:1026C00003F31943904001EBCC71002C01EB045152
:1026D000BDE81040A8BF704701F1C0414FF00000B5
:1026E00001F000417047B0FA80F310FA03F100D115
:1026F00010BDE41A173C4805C90AE4E701EB045190
:1027000010BD491001EB0451BDE810404FEA300004
:1027100002E04FF0000170474A0008BF0042F8D0C5
:10272000B2F5001F28BF704701F000414FF00000D4
:1027300070479EEA445F07D011EA5E0FBDE8104083
:1027400004BF002100207047BDE8104070B5FFF7BE
:10275000A3FD00BF40DFF63E83F000411046704706
:102760000000E0FF0CF00F03092B08BF082000F069
:1027700059800A2B0BD0082B18BF704708BF1CF0DC
:10278000400F0AD04FF000004FF0000170471CF0DE
:10279000400F18BF4FF0004070471CF0100F08D0DA
:1027A00020F0704300F07F4242EAD3014FEA4370C9
:1027B000704700F0604021F07F4242EA000201F0E1
:1027C0007F4040EA727070474FF0FF0C4CF4E06CB1
:1027D0001CEA11531CBF9CEA030C9445C2BFDA42A9
:1027E00001EB02517047002B0DD0BCF1000F0FD050
:1027F000002A01F00041A4BF41F0E04141F07F61B7
:102800004FF00000704701F000414FF000007047AA
:1028100050EA01334FF09B0C18BF4CF0806C7FF4F2
:1028200091AA70471CF4801F11D01CF4E02F03D034
:102830006FEACC31490070474FF04050EFF300820F
:1028400022F0704242EA000282F3008870474FF0A3
:1028500000007047000000000000000001020304B7
:102860000607080900000000000000000000F03F1B
:10287000000000000000F83F000000000000000021
:102880000000004003B8E23F00000000000000002C
:1028900006D0CF43EBFD4C3E033333333333E33FBA
:1028A000FFAB6FDBB66DDB3F4D268F515555D53FE6
:1028B00001411DA96074D13F65DBC9934A86CD3FB4
:1028C000EF4E454A287ECA3F3E5555555555C53FA2
:1028D00093BDBE166CC166BF2CDE25AF6A56113F94
:1028E000F16BD2C541BDBBBED0A4BE726937663E96
:1028F000000000000000000018290008000000206F
:102900002C00000028010008442900082C000020A9
:102910006406000044010008000000004E61BC0095
:10292000000000000A0A0A0A0A0A0A0A0B0B0B0B2B
:102930000B0B0B0B0100000010000000000000005A
:042940000024F4007B
:04000005080000ED02
:00000001FF
